:10051200011C000113010110000117000118010163
:100522001900011B00011400021D00000115000149
:020532000E00B9
:10066D004389207598507587808F8D8F8BD2ACD232
:04067D00AFD28E2248
:0D068100A20192A5A20192A6A20192A722B9
:1001B1001206407FFA7E0012066DC2A0E4F518D245
:1001C10001120681E51A64017024E51C700EE51622
:1001D10070047F0180027F008F16800CE516700489
:1001E1007F0180027F008F16E4F51A751901E51A67
:1001F100B4021DE51C7008F511F50FF512800E858E
:10020100131185100F851712D201120681E4F51A18
:10021100E51A64037036E511FD7C00E4FF1205E385
:100221007F057E0012000EE50FFD7C007F011205A7
:10023100E37F057E0012000EE512FD7C007F0212B5
:1002410005E37F057E0012000EE4F51AE51AB404F9
:1002510018E4FF12058A8F117F0112058A8F0F7F23
:100261000212058A8F12E4F51AE51175F00A84FD70
:100271007C007F011206A4E51175F00A84E5F0FD0A
:100281007C007F021206A47D0B7C007F031206A472
:10029100E50F75F00A84FD7C007F041206A4E50FCA
:1002A10075F00A84E5F0FD7C007F051206A47D0B44
:1002B1007C007F061206A4E51275F00A84FD7C001D
:1002C1007F071206A4E51275F00A84E5F0FD7C00B3
:0802D1007F081206A40201C51A
:1003F100E5166061E51C70230512E512C3946440A3
:1004010054E4F512050FE50F943C4049E4F50F055E
:1004110011E511943C403EE4F51122E511701BE514
:100421000F7017E5127013F516C2011206817FE8ED
:100431007E0312000ED201020681E5127015E50F4E
:10044100700BE511600F1511750F3B8002150F75CB
:06045100126322151222C5
:03002300020026B2
:10002600C0E0C0F0C083C082C0D075D000C000C0A0
:0D00360001C002C003C004C005C006C00721
:10004300C298AF998F99E51B14601E14602A14603F
:100053002F14603424046003020191EF64056003EC
:10006300020191751B010201918F14E514B452062C
:10007300751B02020191800A8F15751B0302019102
:100083008F0E751B04020191EF6426600302018E3B
:10009300E514B43009E51C7005751A018060E51498
:1000A300B43109E51C7005751A028052E514B432A7
:1000B30005751A038048E514B43305751A04803EA8
:1000C300E514B44012751C00751600751100750F08
:1000D3000075120002017CE514B44112751C017510
:1000E300160085131185100F85171202017CE51484
:1000F300B4500DE51CB40108B40103751A018079ED
:10010300E514B4510DE51CB40108B40103751A02DA
:100113008067E51464527064E51C6401705EE50E4B
:10012300F51DE515F51ED3E51E940FE51D940E4050
:1001330008751D0E751E0F8011D3E51E9401E51D74
:1001430094005006751D00751E01AE1DAF1E7C0088
:100153007D3C1204BD8F13AE1DAF1E7C007D3C128F
:1001630004BD8D10751700E51CB4010DE51670096B
:1001730085131185100F851712751901E519600B89
:10018300C2A07F327E0012000ED2A0751B003099F0
:03019300FDC29911
:10019600D007D006D005D004D003D002D001D000BD
:0B01A600D0D0D082D083D0F0D0E03267
:03000B000202D915
:1002D900C0E0C0F0C083C082C0D075D000C000C0EB
:0D02E90001C002C003C004C005C006C0076C
:1002F600758A18758CFC0509E50970020508C39412
:1003060014E50894004009750800750900120551A6
:10031600050BE50B7002050AC39402E50A9400403A
:1003260009750A00750B00120625050DE50D70020C
:10033600050CC3940AE50C94004009750C00750D74
:04034600001203F1AD
:10034A00D007D006D005D004D003D002D001D00007
:0B035A00D0D0D082D083D0F0D0E032B1
:10000E00EF1FAC0670011E4C600A7D027CEFDCFE19
:04001E00DDFC80EC99
:0100220022BB
:100534000922000A0A0A0A0A0A0A0A0C2B3F065B65
:0C0544004F666D7D077F6F0040012101B4
:0906A400AE0574222FF8A606220F
:10045700E4F580EF14B40800505490046F75F0036E
:10046700A4C58325F0C5837302048702048B0204A5
:100477008F02049302049702049F0204A70204AFA9
:10048700D2A4800ED2A48012D2A48016D2A4801A3D
:10049700C2A4D2A3D2A28016C2A4D2A3C2A2800EA3
:1004A700C2A4C2A3D2A28006C2A4C2A3C2A2742BB2
:0604B7002DF8E6F580229D
:1006250074222521F8E6FD7C00AF2112045705212F
:0A063500E521C3940940037521017B
:01063F002298
:0506B600E4AF39F53945
:0106BB00221C
:10065700E4FF20B1010F20B0027F0220B2027F0326
:0506670020B3027F0436
:01066C00226B
:100551008537381206578F37E538B40107E537700C
:1005610003753901E538B40207E5377003753902BF
:10057100E538B40307E5377003753903E538B4048A
:0805810007E53770037539042A
:01058900224F
:100640005389F0438901758A18758CFCC28DD28C50
:07065000D2A9D2AFC2B9220A
:1005E3008F3A8C3B8D3C1206AD7FA01205BA1206E2
:1005F3008EAF3A1205BA12068EAF3C1205BA120636
:040603008E02000360
:02058A008F3AA6
:10058C001206AD7FA01205BA12068EAF3A1205BA4A
:10059C0012068E1206AD7FA11205BA12068E120635
:0D05AC00078F3B7F0112069A120003AF3B40
:0105B900221F
:0906AD00D2A0D2A1C2A0C2A12278
:07000300C2A0D2A1D2A0228D
:0205BA00AD078B
:1005BC00E4FB74807E00A803088006CEA2E713CE6D
:1005CC0013D8F8FFEDF582EF558224FF92A0D2A14B
:0605DC00C2A10BBB08DC0C
:0105E20022F6
:10060700E4FFD2A0FED2A130A00D7480A806088016
:0D06170002C313D8FC4207C2A10EBE08E8C2
:0106240022B3
:0A069A00EF24FF92A0D2A1C2A1221A
:0B068E00D2A0D2A1A2A0E433FFC2A1C1
:01069900223E
:0300000002036593
:0C036500787FE4F6D8FD75813C0203AC03
:1004BD00BC000BBE0029EF8DF084FFADF022E4CC23
:1004CD00F875F008EF2FFFEE33FEEC33FCEE9DECEC
:1004DD00984005FCEE9DFE0FD5F0E9E4CEFD22ED32
:1004ED00F8F5F0EE8420D21CFEADF075F008EF2F7C
:1004FD00FFED33FD4007985006D5F0F222C398FD6D
:05050D000FD5F0EA2209
:100371000201B1E493A3F8E493A34003F68001F2F0
:1003810008DFF48029E493A3F85407240CC8C3338D
:10039100C4540F4420C8834004F456800146F6DF5C
:1003A100E4800B0102040810204080900512E47ED5
:1003B100019360BCA3FF543F30E509541FFEE49351
:1003C100A360010ECF54C025E060A840B8E493A318
:1003D100FAE493A3F8E493A3C8C582C8CAC583CA43
:1003E100F0A3C8C582C8CAC583CADFE9DEE780BEFB
:0105500000AA
:00000001FF
