:0A01F500C0F9A4B0999282F880903E
:0901EB00040800000000010C0FE3
:0601FF00E4FF0FBFFAFC53
:0102050022D6
:10000300E50C30E01EE59020E0191201FFE5902099
:10001300E011E5082401FFE433FE7C007D0A1201B0
:100023005E8D08E59030E0047F0180027F00E50CDF
:1000330054FE4FF50C30E11EE59020E1191201FF4B
:10004300E59020E111E5092401FFE433FE7C007D06
:100053000A12015E8D09E59030E1047F0280027F80
:1000630000E50C54FD4FF50C30E21EE59020E2193B
:100073001201FFE59020E211E50A2401FFE433FEBB
:100083007C007D0A12015E8D0AE59030E2047F0454
:1000930080027F00E50C54FB4FF50C30E31EE59026
:1000A30020E3191201FFE59020E311E50B2401FF82
:1000B300E433FE7C007D0A12015E8D0BE59030E394
:0F00C300047F0880027F00E50C54F74FF50C22F4
:1001B300120003750D01E4F50EF50F850DA074080B
:1001C300250FF8E69001F593F580E50D25E0F50D93
:1001D3001201FF050FE50F7002050EC39404E50E2F
:0801E3006480948040D580C8BF
:030000000200D229
:0C00D200787FE4F6D8FD75810F0201195B
:10015E00BC000BBE0029EF8DF084FFADF022E4CC85
:10016E00F875F008EF2FFFEE33FEEC33FCEE9DEC4E
:10017E00984005FCEE9DFE0FD5F0E9E4CEFD22ED94
:10018E00F8F5F0EE8420D21CFEADF075F008EF2FDE
:10019E00FFED33FD4007985006D5F0F222C398FDCF
:0501AE000FD5F0EA226C
:1000DE000201B3E493A3F8E493A34003F68001F284
:1000EE0008DFF48029E493A3F85407240CC8C33323
:1000FE00C4540F4420C8834004F456800146F6DFF2
:10010E00E4800B01020408102040809001EBE47E95
:10011E00019360BCA3FF543F30E509541FFEE493E6
:10012E00A360010ECF54C025E060A840B8E493A3AD
:10013E00FAE493A3F8E493A3C8C582C8CAC583CAD8
:10014E00F0A3C8C582C8CAC583CADFE9DEE780BE90
:0101F400000A
:00000001FF
