:0A00D100C0F9A4B0999282F8809063
:0C00C400040902000204010800010D0004
:0600DB00E4FF0FBFFAFC78
:0100E10022FC
:10008F00750E01E4F50FF510850EA074092510F813
:10009F00E69000D193F580E50E25E0F50E1200DB1A
:1000AF000510E5107002050FC39404E50F648094EA
:0500BF008040D580CB5C
:03000000020003F8
:0C000300787FE4F6D8FD75811202004AF7
:10000F0002008FE493A3F8E493A34003F68001F278
:10001F0008DFF48029E493A3F85407240CC8C333F2
:10002F00C4540F4420C8834004F456800146F6DFC1
:10003F00E4800B01020408102040809000C4E47E8D
:10004F00019360BCA3FF543F30E509541FFEE493B6
:10005F00A360010ECF54C025E060A840B8E493A37D
:10006F00FAE493A3F8E493A3C8C582C8CAC583CAA8
:10007F00F0A3C8C582C8CAC583CADFE9DEE780BE60
:0100D000002F
:00000001FF
