:0400D2000208000020
:1000C200438901758C3C758AB0D2A9D2AFD28C22F9
:03000B0002009A56
:04009A00C0E0C0D032
:10009E00758C3C758AB00509E50970020508C39494
:0F00AE0014E50894004008750800750900B29029
:0500BD00D0D0D0E032BC
:07000300C2901200C280FE52
:0300000002000EED
:0C000E00787FE4F6D8FD758109020055EA
:10001A00020003E493A3F8E493A34003F68001F2F9
:10002A0008DFF48029E493A3F85407240CC8C333E7
:10003A00C4540F4420C8834004F456800146F6DFB6
:10004A00E4800B01020408102040809000D2E47E74
:10005A00019360BCA3FF543F30E509541FFEE493AB
:10006A00A360010ECF54C025E060A840B8E493A372
:10007A00FAE493A3F8E493A3C8C582C8CAC583CA9D
:10008A00F0A3C8C582C8CAC583CADFE9DEE780BE55
:0100D6000029
:00000001FF
