:0B001700010901030A000000010800BD
:100003004389207598507587808F8D8F8BD2ACD2A2
:04001300AFD28E22B8
:030023000200B226
:0900B200C0E0C0D075D000C00709
:1000BB00C298AF998F99850B0A850C0B8F0C05088D
:1000CB00E508C394034026E50A64317020E50BB4C0
:1000DB00311BE50CB43116E50970047F0180027FFA
:1000EB00008F09E50924FFB392A07508003099FD34
:0200FB00C299A8
:0700FD00D007D0D0D0E032A3
:0E0104007FFA7E00120003C2A0E4F50980FE1F
:03000000020026D5
:0C002600787FE4F6D8FD75810C02006DB7
:10003200020104E493A3F8E493A34003F68001F2DF
:1000420008DFF48029E493A3F85407240CC8C333CF
:10005200C4540F4420C8834004F456800146F6DF9E
:10006200E4800B0102040810204080900017E47E17
:10007200019360BCA3FF543F30E509541FFEE49393
:10008200A360010ECF54C025E060A840B8E493A35A
:10009200FAE493A3F8E493A3C8C582C8CAC583CA85
:1000A200F0A3C8C582C8CAC583CADFE9DEE780BE3D
:0100220000DD
:00000001FF
