:0A022400C0F9A4B0999282F880900E
:10000600040A00000204020F0018010E0FC180024C
:03001600080000DF
:06022E00E4FF0FBF64FCB9
:0102340022A7
:0F021500438910E4F58DF58BD2ABD2AFD28E2298
:03001B00020135AA
:10013500C0E0C0F0C0D075D000C000C004C005C08C
:0301450006C007EA
:10014800758D3C758BAF0509E509700205086414C7
:1001580045087035F508F509E51015107002150FFA
:10016800C3E50F648094805006750F00751018AEB3
:100178000FAF107C007D0A1200AA8F0CAE0FAF10D3
:090188007C007D0A1200AA8D0D15
:10019100D007D006D005D004D000D0D0D0F0D0E028
:0101A100322B
:07023500D288D2A8D2AF224B
:030003000201E90E
:1001E900C0E0C0D075D000C00712022EE59020E013
:1001F90006750F00751000E59020E109308E03C3E4
:0C0209008001D3928ED007D0D0D0E0321C
:1001A200120215120235750C02750D04750F0075D9
:1001B2001018751101E4F512F5138511A0740A25C2
:1001C20013F8E690022493F580E51125E0F511126B
:1001D200022E0513E51370020512C39404E512649E
:0701E20080948040D580CB22
:0300000002001EDD
:0C001E00787FE4F6D8FD758120020065B3
:1000AA00C2D5EC30E709B2D5E4C39DFDE49CFCEE71
:1000BA0030E715B2D5E4C39FFFE49EFE1200E0C309
:1000CA00E49DFDE49CFC80031200E030D507C3E404
:0600DA009FFFE49EFE22E0
:10002A000201A2E493A3F8E493A34003F68001F249
:10003A0008DFF48029E493A3F85407240CC8C333D7
:10004A00C4540F4420C8834004F456800146F6DFA6
:10005A00E4800B0102040810204080900006E47E30
:10006A00019360BCA3FF543F30E509541FFEE4939B
:10007A00A360010ECF54C025E060A840B8E493A362
:10008A00FAE493A3F8E493A3C8C582C8CAC583CA8D
:10009A00F0A3C8C582C8CAC583CADFE9DEE780BE45
:0100190000E6
:1000E000BC000BBE0029EF8DF084FFADF022E4CC04
:1000F000F875F008EF2FFFEE33FEEC33FCEE9DECCD
:10010000984005FCEE9DFE0FD5F0E9E4CEFD22ED12
:10011000F8F5F0EE8420D21CFEADF075F008EF2F5C
:10012000FFED33FD4007985006D5F0F222C398FD4D
:050130000FD5F0EA22EA
:00000001FF
