:0C000300020A0000020C000002080000CD
:03001B00020111CE
:04011100C0E0C0D0BA
:100115000509E5097002050830A00DC3950BE50832
:10012500950A4004C2A0801020A016C3E509950DCC
:10013500E508950C400BD2A0750800750900758D72
:0101450006B3
:05014600D0D0D0E03232
:10014B007C007D1B7FF07E001200AA7D641200BC38
:10015B008E0A8F0BC374F0950BF50DE4950AF50C15
:10016B00758920758D06758B06D2ABD2AFD28ED228
:03017B00A080FE63
:0300000002001EDD
:0C001E00787FE4F6D8FD75810D020065C6
:1000AA00EF8DF0A4A8F0CF8CF0A428CE8DF0A42E6A
:0200BA00FE2224
:1000BC00BC000BBE0029EF8DF084FFADF022E4CC28
:1000CC00F875F008EF2FFFEE33FEEC33FCEE9DECF1
:1000DC00984005FCEE9DFE0FD5F0E9E4CEFD22ED37
:1000EC00F8F5F0EE8420D21CFEADF075F008EF2F81
:1000FC00FFED33FD4007985006D5F0F222C398FD72
:05010C000FD5F0EA220E
:10002A0002014BE493A3F8E493A34003F68001F2A0
:10003A0008DFF48029E493A3F85407240CC8C333D7
:10004A00C4540F4420C8834004F456800146F6DFA6
:10005A00E4800B0102040810204080900003E47E33
:10006A00019360BCA3FF543F30E509541FFEE4939B
:10007A00A360010ECF54C025E060A840B8E493A362
:10008A00FAE493A3F8E493A3C8C582C8CAC583CA8D
:10009A00F0A3C8C582C8CAC583CADFE9DEE780BE45
:01000F0000F0
:00000001FF
