:07011C00010A0002080000C7
:03000300020110E7
:0C011000C0E0E50A045403F50AD0E03218
:03000B0002009A56
:0B009A00C0E0C0D075D000C006C00759
:1000A500E50A70047FFF800DE50AB401047FF68040
:1000B50004E50A7F9E8F8CE50A70047F06800DE5B6
:1000C5000AB401047F3C8004E50A7F588F8AE50A5B
:1000D500B403160509E50970020508640A450870A8
:0B00E5000AF508F509B2A08002B2A0E5
:0900F000D007D006D0D0D0E032D8
:1000F900D288D2A8D2AF758901758CFF758A06D2CC
:07010900A9D28CC2A080FE08
:0300000002000EED
:0C000E00787FE4F6D8FD75810A020055E9
:10001A000200F9E493A3F8E493A34003F68001F203
:10002A0008DFF48029E493A3F85407240CC8C333E7
:10003A00C4540F4420C8834004F456800146F6DFB6
:10004A00E4800B010204081020408090011CE47E29
:10005A00019360BCA3FF543F30E509541FFEE493AB
:10006A00A360010ECF54C025E060A840B8E493A372
:10007A00FAE493A3F8E493A3C8C582C8CAC583CA9D
:10008A00F0A3C8C582C8CAC583CADFE9DEE780BE55
:0101230000DB
:00000001FF
