:0300000002000EED
:0C000E00787FE4F6D8FD758110020055E3
:0500030012018280FEE5
:10016A00751004750F02E4F50E750D02750C047511
:08017A000B02F50A75090222CF
:10018200438901E4F58A758CEEC28DD28CD2A9D254
:02019200AF229A
:03000B00020126C9
:10012600C0E0C0F0C083C082C0D075D000C000C09F
:1001360001C002C003C004C005C006C007758A001E
:10014600758CEE12016A12009AD007D006D005D03F
:1001560004D003D002D001D000D0D0D082D083D03A
:04016600F0D0E032C3
:0B01A2003F065B4F666D7D077F6F001E
:0D0194000809000000000000000001080044
:10009A000508E508D394074003E4F508E4F590E57C
:1000AA0008B4080050679000B7F82828730200CFF8
:1000BA000200D10200DB0200E50200EF0200F902B1
:1000CA00010302010D8046C2A4C2A3D2A2E50A809E
:1000DA0044C2A4D2A3C2A2E50B803AC2A4D2A3D23C
:1000EA00A2E50C8030D2A4C2A3C2A2E50D8026D21A
:1000FA00A4C2A3D2A2E50E801CD2A4D2A3C2A2E5B6
:10010A000F8012D2A4D2A3D2A2E5108008C2A4C240
:0B011A00A3C2A2E5099001A293F5909A
:0101250022B7
:10001A00020003E493A3F8E493A34003F68001F2F9
:10002A0008DFF48029E493A3F85407240CC8C333E7
:10003A00C4540F4420C8834004F456800146F6DFB6
:10004A00E4800B0102040810204080900194E47EB1
:10005A00019360BCA3FF543F30E509541FFEE493AB
:10006A00A360010ECF54C025E060A840B8E493A372
:10007A00FAE493A3F8E493A3C8C582C8CAC583CA9D
:10008A00F0A3C8C582C8CAC583CADFE9DEE780BE55
:0101A100005D
:00000001FF
