:0300000002010EEC
:0C010E00787FE4F6D8FD75810A020155E7
:10000E008084888C9094989CA0A4A8ACB0B4B8BC02
:10001E00C0C4C8CCD0D4D8DCE0E4E8ECF0F4F8FCF2
:10002E00FFFFFAF5F0EBE6E1DCD7D2CDC8C3BEB9DF
:10003E00B4AFAAA5A09B96918C87827D78736E69CA
:10004E00645F5A55504B46413C37322D28231E19BA
:10005E00140F0A0500000000000000000000000060
:10006E000000000000000000000000000000000082
:10007E00050A0F14191E23282D32373C41464B50CA
:10008E00555A5F64696E73787D82878C91969BA0BA
:10009E00A5AAAFB4B9BEC3C8CDD2D7DCE1E6EBF0AA
:1000AE008080808080808080808080808080808042
:1000BE008080808080808080808080808080808032
:1000CE008080808080808080808080808080808022
:1000DE008080808080808080808080808080808012
:1000EE008080808080808080808080808080808002
:1000FE0080808080808080808080808080808080F2
:0700030001080002090000E2
:01022B0022B0
:1001FC00EFC39480EF500425E0FF22248025E0FF1C
:06020C00C374FF9FFF22F6
:0A022100758901D2AFD2A9D28C2258
:0E021200C3E494D3FFE49400AD07F58C8D8A0D
:0102200022BB
:03000B000201DF10
:1001DF00C0E0C0D075D000C005C007750900750A12
:0D01EF0001120212D007D005D0D0D0E032AE
:10019A00120221120212E4FDC37480948150F7E521
:1001AA000814600914600F240270148012AF05123B
:1001BA00022BAE07800FAF051201FCAE078006EDD9
:1001CA0090000E93FE8EA0E4F509F50AE50A4509AA
:0501DA0060FA0D80C376
:10011A0002019AE493A3F8E493A34003F68001F260
:10012A0008DFF48029E493A3F85407240CC8C333E6
:10013A00C4540F4420C8834004F456800146F6DFB5
:10014A00E4800B0102040810204080900003E47E42
:10015A00019360BCA3FF543F30E509541FFEE493AA
:10016A00A360010ECF54C025E060A840B8E493A371
:10017A00FAE493A3F8E493A3C8C582C8CAC583CA9C
:10018A00F0A3C8C582C8CAC583CADFE9DEE780BE54
:01000A0000F5
:00000001FF
